:100000000C9434000C9451000C9451000C94510049
:100010000C9451000C9451000C9451000C9451001C
:100020000C9451000C9451000C9451000C9451000C
:100030000C9451000C9451000C9451000C945100FC
:100040000C9451000C9451000C9451000C945100EC
:100050000C9451000C9451000C9451000C945100DC
:100060000C9451000C94510011241FBECFEFD8E026
:10007000DEBFCDBF14E0A0E0B1E0E0E1FEE102C0F0
:1000800005900D92AE31B107D9F714E0AEE1B4E0BE
:1000900001C01D92A132B107E1F70E9498010C94B2
:1000A000060F0C94000014BC85E085BD16BC0895B5
:1000B00095B121E030E002C0220F331F8A95E2F7AC
:1000C000922B95B985E38A95F1F785B12095282380
:1000D00025B9089521E030E002C0220F331F8A9530
:1000E000E2F783B190E082239323892BD1F386B585
:1000F000089521E030E002C0220F331F8A95E2F715
:1001000083B190E082239323892BD1F786B508959C
:100110001F93162F0E94580021E030E002C0220FEA
:10012000331F1A95E2F783B190E082239323892B42
:10013000D1F346B583B190E082239323892BD1F785
:1001400066B5461728F0E0E070E080E86FEB11C07C
:1001500070E0641B7109882777FD8095982F0E94B5
:100160006E0B24E43BE84CE85FE30E943809E62F7D
:10017000692F2E2F372F482F562FB901CA011F91F3
:10018000089583EC80937C0087E880937A0008953B
:1001900080917A00806480937A0080917A0084FF55
:1001A000FCCF2091780040917900942F80E030E0DE
:1001B000282B392BC9010895A0E0B0E0BC01CD0186
:1001C0000E94200C2DEC3CEC4CE85FE30E943809C7
:1001D0002AE037ED43E251E40E94320A20E030E0A9
:1001E00048E452E40E94DA0826E636E646EE5FE38B
:1001F0000E94380920E030E040E052E40E940B0900
:1002000008952A9A80E395E720E931E0F9013197D2
:10021000F1F70197D9F72A9888E893E120E931E0CE
:10022000F9013197F1F70197D9F708954F925F924D
:100230006F927F928F929F92AF92BF92CF92DF92F6
:10024000EF92FF920F931F93DF93CF9300D000D0D4
:10025000CDB7DEB74C012A013B0109831A832B83FA
:100260003C8380E00E94650480E091E00E94C90325
:10027000AA2497FCA094BA2C8AE0B501A40123E03B
:100280000E94E60282E00E9465048CE091E00E94F8
:10029000C903C301B2010E946207AB01BC018AE03D
:1002A00022E00E94E6028AE191E00E94C90384E014
:1002B0000E9465048DE191E00E94C90369817A8101
:1002C0008B819C810E946207AB01BC018AE022E025
:1002D0000E94E6020AE211E0C8010E94C90386E01A
:1002E0000E9465048EE291E00E94C903C701B60135
:1002F0000E946207AB01BC018AE022E00E94E60294
:10030000C8010E94C9030F900F900F900F90CF91DA
:10031000DF911F910F91FF90EF90DF90CF90BF90F2
:10032000AF909F908F907F906F905F904F900895C7
:100330002F923F924F925F926F927F928F929F92F5
:10034000AF92BF92CF92DF92EF92FF920F931F93E3
:10035000DF93CF9300D000D0CDB7DEB70E946F06F9
:1003600084B1866184B985B18D7E85B98AB18C618D
:100370008AB983EC80937C0087E880937A0014BC70
:1003800085E085BD16BC8BB1837E8BB922243324D6
:100390000E94C8008C0181E060E00E9488004B014F
:1003A0005C0184E065E00E9488002B013C01C501EE
:1003B000B40120E030E040E050E00E94DE0A181670
:1003C0000CF04FC0C301B20120E030E040E050E04B
:1003D0000E94DE0A18160CF044C0C8010E94DC001E
:1003E00069837A838B839C83C10149815A816B81A4
:1003F0007C8195018401730162010E941601C5018F
:10040000B4012AE037ED43E752E40E943E0B882313
:10041000A4F489E12816310484F469817A818B81FE
:100420009C812DEC3CEC48EC52E40E943E0B88236E
:1004300024F40894211C311C10C0C301B2012AE02D
:1004400037ED43E752E40E943E0B88234CF421141D
:10045000310431F00894210831080E94010101C0E3
:100460005C9AEDE02E16310424F45A9A8BB1877E03
:100470000BC0F9E12F16310424F45B9A8BB18B7E0B
:1004800003C05C9A8BB1837F8BB982CF0E940D072A
:1004900008950E94580708951F93182F80E00E9426
:1004A000CB06812F0E94E4061F9108951F93182FF9
:1004B0008CE30E944C0280E00E940D07812F0E9475
:1004C0000D070E9458071F9108951F93182F81E868
:1004D0000E945602812F0E9456021F91089586EABB
:1004E0000E945602089587EA0E94560208950F93CB
:1004F0001F93082F162F8830F0F467FD1CC08093DF
:100500001F046093200481E20E945602812F0E9402
:1005100056028FE70E94560282E20E945602802F06
:100520000E94560287E00E9456028CE30E944C0211
:1005300080E40E940D071F910F91089580911F0480
:100540008F5F877080931F0460E00E947702089598
:100550000F931F93CF93DF93182F8091200490E087
:100560008B37910514F41A3021F40E949E021A3040
:1005700041F1812F805225E0829F80011124055C8A
:100580001E4F90E00196EC01CC0FDD1FCC0FDD1F5C
:10059000C80FD91FC55CDE4FF80181918F010E9401
:1005A0000D07809120048F5F809320040C171D0796
:1005B00099F780E00E940D07809120048F5F80935F
:1005C0002004DF91CF911F910F9108954F925F9278
:1005D0006F927F928F929F92AF92BF92CF92DF9253
:1005E000EF92FF920F931F93DF93CF93CDB7DEB7B8
:1005F0002C970FB6F894DEBF0FBECDBF5A016B012A
:10060000E22E823021F51EC020E08E2D90E0019771
:10061000A80102C0440F551F8A95E2F7CA01AA2714
:1006200097FDA095BA2F8A219B21AC21BD2100976F
:10063000A105B10509F021E0822F805D0E94A8028A
:10064000EA9402C001E010E0EE20F1F653C041153B
:1006500051056105710551F010E02E010894411C0F
:10066000511C682E77248824992433C000E004C0EC
:1006700080E30E94A8020F5F0E15E0F50A30C1F773
:1006800039C0A114B104C104D104D9F0FA2CC601B7
:10069000B501A40193010E94AD0EC901DA015C010C
:1006A0006D01C201810F911D9C878B87C601B50129
:1006B000A40193010E948E0EF61AEB85FC85F08250
:1006C00007C0FAE0FE15A0F0F201E10FF11D108263
:1006D0001F5F1E15B0F20CC0FE01E10FF11D8081FD
:1006E0008A3010F0895C01C0805D0E94A802115020
:1006F000112391F72C960FB6F894DEBF0FBECDBF35
:10070000CF91DF911F910F91FF90EF90DF90CF90ED
:10071000BF90AF909F908F907F906F905F904F9021
:100720000895AF92BF92CF92DF92EF92FF920F9314
:100730001F935B016C010E9462077B018C018AE0C0
:10074000B801A7012FEF0E94E6028EE20E94A802E4
:10075000C801B7010E94200C9B01AC01C601B50184
:100760000E94DA0820E034E244E759E40E943809A4
:100770000E946207AB01BC018AE02FEF0E94E602F3
:100780001F910F91FF90EF90DF90CF90BF90AF90AF
:100790000895CF93DF93EC0103C021960E94A80235
:1007A00088818823D1F7DF91CF910895FF920F932D
:1007B0001F93F62E853030F594E6961718F1082F22
:1007C000000F0F5F802F60E00E94770210E004C0EE
:1007D0008FEF0E940D071F5F1F15D0F31F2D04C060
:1007E00080E00E940D071F5F1436D0F3802F69E66A
:1007F0000E9477024F2D50E060E070E08AE023E035
:100800000E94E6021F910F91FF900895CF92DF9210
:10081000EF92FF920F931F93062F853008F04EC082
:10082000653608F04BC0182F1295110F107E185F17
:1008300080E0612F0E947702402F50E060E070E07E
:100840008AE023E00E94E602402F4695242F269559
:100850002695269567E0E62EE21A822F90E053E077
:10086000880F991F5A95E1F7481B28E030E0241BB8
:1008700031098FEF90E002C0880F991F2A95E2F7A7
:10088000C82EFF24F39434E0D32ED10E8F2D6D2D7E
:100890000E947702FE1410F400E005C0FE1411F06F
:1008A0000FEF01C00C2D10E0802F0E940D071F5F7D
:1008B0001C30D1F7F39488E0F81641F71F910F919F
:1008C000FF90EF90DF90CF900895883028F48093C8
:1008D0001F0460E00E94770208953F924F925F925A
:1008E0006F927F928F929F92AF92BF92CF92DF9240
:1008F000EF92FF920F931F93CF93DF93B82E4B018C
:1009000087E08B1508F4BB24CC24B5E03B2EA5E38F
:10091000AA2EF0E94F2EF1E05F2E44C0E6E0EE2E65
:1009200039018B2D6E2D0E947702FE2CDD2425C00F
:100930008052839D80011124055C1E4F90E001963A
:10094000EC01CC0FDD1FCC0FDD1FC80FD91FC55C1C
:10095000DE4F09C0F80181918F010E940D07F394C9
:100960000C171D0711F0F7FEF5CF80E00E940D0770
:100970008A2D8A95F1F7F394D394F401ED0DF11DCE
:10098000E60DF71D8081882311F0F7FED1CF88ECAA
:1009900090E0F2013197F1F70197D9F7EA9409F065
:1009A000C0CFC3942C2D30E0F401E20FF31F8081FF
:1009B000882309F0B3CFDF91CF911F910F91FF9062
:1009C000EF90DF90CF90BF90AF909F908F907F90EF
:1009D0006F905F904F903F9008950F931F93CF9328
:1009E000DF938C0180E060E00E9477028CE30E943C
:1009F0004C0280E40E940D07C0E0D0E0F801EC0F4B
:100A0000FD1F80810E940D07219684E0C030D80729
:100A1000A9F7DF91CF911F910F910895CF93DF93A5
:100A200081E20E94560280E00E9456028FE70E94F7
:100A3000560282E20E94560280E00E94560287E03F
:100A40000E9456028CE30E944C0280E40E940D0733
:100A5000C0E0D0E080E00E940D07219684E0C03025
:100A6000D807C1F781E20E94560280E00E94560238
:100A70008FE70E94560282E20E94560280E00E94A6
:100A8000560287E00E9456028CE30E944C0280E4EA
:100A90000E940D07DF91CF9108958F929F92AF92A0
:100AA000BF92CF92DF92EF92FF920F931F93DF934B
:100AB000CF93CDB7DEB731E1E32EF12CEC0EFD1E66
:100AC0008F8598899C0159012AE0C22EF6C0853293
:100AD00009F0EEC00894A11CB11CF5019081892F8A
:100AE00080538A3018F0DD24DA940FC0DD2409C069
:100AF000DC9CD02C1124D80E0894A11CB11CF5014B
:100B00009081892F80538A3098F3983509F48BC0EF
:100B10009935C4F4943409F44BC095344CF49234B0
:100B200009F49DC093342CF5953209F0C3C0BFC0C1
:100B3000933509F4B2C0953509F462C0963409F0D2
:100B4000B9C0A0C0963609F49DC0973644F49336D8
:100B500081F09436B1F0923609F0ACC071C095378F
:100B600009F445C0983709F455C0933709F0A2C07D
:100B700094C087010E5F1F4FF70180810E94A80279
:100B800094C092E0892E912C8E0C9F1CF70100815D
:100B9000118117FF06C0109501951F4F8DE20E942D
:100BA000A802A801662757FD6095762F8AE01AC033
:100BB00084E0882E912C8E0C9F1CF701E080F18040
:100BC0000281138117FF0BC010950095F094E094FB
:100BD000E11CF11C011D111D8DE20E94A8028AE09A
:100BE000B801A7012D2D0E94E602740163C08701A0
:100BF0000E5F1F4FF7014081518160E070E008C037
:100C000087010C5F1F4FF701408151816281738121
:100C10008AE012C087010E5F1F4FF70140815181AA
:100C200060E070E008C087010C5F1F4FF701408152
:100C300051816281738180E12D2D0E94E60235C0D1
:100C4000F70140815181FFEFDF1611F400E1D02E52
:100C500082E090E0E80EF91E60E070E00EC0F7015F
:100C60004081518162817381FFEFDF1611F410E141
:100C7000D12E84E090E0E80EF91E82E02D2D0E9436
:100C8000E60218C087010C5F1F4FF7016081718178
:100C9000828193810E94910308C087010E5F1F4FDC
:100CA000F701808191810E94C903780103C085E228
:100CB0000E94A8020894A11CB11CF5018081882320
:100CC00009F005CFCF91DF911F910F91FF90EF9029
:100CD000DF90CF90BF90AF909F908F9008950E942B
:100CE000BF068EEA0E94560285ED0E94560280E8F9
:100CF0000E94560288EA0E9456028FE30E94560222
:100D000083ED0E94560280E00E94560280E40E9419
:100D100056028DE80E94560284E10E94560280E24B
:100D20000E94560280E00E94560281EA0E9456020A
:100D300088EC0E9456028AED0E94560282E10E94CF
:100D4000560281E80E9456028FEC0E94560289EDFD
:100D50000E94560281EF0E9456028BED0E945602BD
:100D600080E40E94560284EA0E94560286EA0E94AB
:100D700056028FEA0E9456020E940E050895E9EB82
:100D8000F0E080818260808380818E7F808383E138
:100D90008093B800089580931E048091BC00846AFB
:100DA0008093BC008091BC0087FFFCCF8091B9008C
:100DB00090E0887F90708830910521F0409711F085
:100DC0008EEF08958FEF089590911E04880F892B60
:100DD0008093BB008091BC008F7D8093BC0080918C
:100DE000BC0080688093BC008091BC0087FFFCCF72
:100DF000992331F48091B900887F883151F40BC078
:100E0000913011F080E008958091B900887F80349E
:100E100011F08EEF08958FEF08958093BB008091BD
:100E2000BC0080688093BC008091BC0087FFFCCF31
:100E30008091B900887F883211F08EEF08958FEF8E
:100E4000089592E306C08091BC0087FF02C08DEF39
:100E500008959150C0F78CEF0895882321F4809174
:100E6000BC00806403C08091BC008F7B8093BC0079
:100E70008091BC0080688093BC0092E304C08091A4
:100E8000BC0087FD02C09150D0F78091B90090E07E
:100E9000887F90708035910529F08835910529F07B
:100EA0008EEF08958091BB0008958091BB00089556
:100EB0008091BC0080698093BC008091BC0084FF5D
:100EC000FCCF0895EF92FF920F931F937B018C014B
:100ED00020E030E040E05FE40E940E0B88238CF0BD
:100EE000C801B70120E030E040E05FE40E94DA088A
:100EF0000E94CC0B9B01AC01205030404040504838
:100F000006C0C801B7010E94CC0B9B01AC01B9011E
:100F1000CA011F910F91FF90EF900895A0E0B0E0FB
:100F2000E4E9F7E00C94CF0EDC012B01FA019C916F
:100F3000923008F439C1EB018881823008F433C162
:100F4000943069F4843009F02FC111969C91119767
:100F50008981981709F428C1A6E1B3E025C184303E
:100F600009F421C18230A9F4923009F01DC19A011F
:100F7000AD0188E0EA010990AE01E90109929E0104
:100F80008150C1F7E201898111969C918923818367
:100F900008C1923009F407C112962D903C90139726
:100FA000EB018A819B811496AD90BD90CD90DC9031
:100FB0001797EC80FD800E811F819101281B390B52
:100FC000B90137FF04C066277727621B730B6032B5
:100FD00071050CF061C0121613066CF5370148015B
:100FE000062E04C096948794779467940A94D2F757
:100FF00021E030E040E050E004C0220F331F441FE6
:10100000551F6A95D2F721503040404050402E2164
:101010003F2140235123211531054105510521F080
:1010200021E030E040E050E079018A01E628F7282D
:10103000082919293CC0232BD1F1260E371E350172
:101040004601062E04C096948794779467940A9478
:10105000D2F721E030E040E050E004C0220F331F1F
:10106000441F551F6A95D2F72150304040405040F0
:101070002A213B214C215D212115310541055105D6
:1010800021F021E030E040E050E059016A01A6285B
:10109000B728C828D9280BC0821593052CF01C014D
:1010A000AA24BB24650103C0EE24FF248701119606
:1010B0009C91D20111968C91981709F445C09923FF
:1010C00039F0A80197012A193B094C095D0906C0AE
:1010D000A60195012E193F09400B510B57FD08C081
:1010E00011823382228224833583468357831DC035
:1010F00081E081833382228288279927DC01821B49
:10110000930BA40BB50B84839583A683B7830DC083
:10111000220F331F441F551F248335834683578373
:1011200082819381019793838283248135814681D3
:101130005781DA01C9010197A109B1098F5F9F4F5A
:10114000AF4FBF4328F30BC0918333822282EA0C56
:10115000FB1C0C1D1D1DE482F5820683178383E0B2
:101160008083248135814681578157FF1AC0C90188
:10117000AA2797FDA095BA2F81709070A070B070CB
:101180005695479537952795822B932BA42BB52BF6
:1011900084839583A683B783828193810196938309
:1011A0008283DF0101C0D201CD01CDB7DEB7E2E11C
:1011B0000C94EB0EA0E2B0E0E0EEF8E00C94DB0E55
:1011C00069837A838B839C832D833E834F835887E7
:1011D000E9E0EE2EF12CEC0EFD1ECE010196B701DA
:1011E0000E94BD0D8E010F5E1F4FCE010596B80106
:1011F0000E94BD0D8A8991E089278A8BC701B801B9
:10120000AE01475E5F4F0E948E070E94E80CA096D9
:10121000E6E00C94F70EA0E2B0E0E1E1F9E00C9416
:10122000DB0E69837A838B839C832D833E834F837C
:101230005887F9E0EF2EF12CEC0EFD1ECE01019641
:10124000B7010E94BD0D8E010F5E1F4FCE010596A6
:10125000B8010E94BD0DC701B801AE01475E5F4FE6
:101260000E948E070E94E80CA096E6E00C94F70E10
:10127000A0E2B0E0EEE3F9E00C94CF0E69837A834C
:101280008B839C832D833E834F835887CE010196A9
:10129000BE01675F7F4F0E94BD0DCE010596BE0166
:1012A0006F5E7F4F0E94BD0D9985923088F08989CD
:1012B0008230C8F0943019F4823051F404C0843084
:1012C00029F4923081F486E193E0C6C0923049F46B
:1012D00020E09A858A89981321E02A87CE01099611
:1012E000BBC0823049F420E09A858A89981321E0B6
:1012F0002A8BCE014196B0C02D843E844F845888FD
:101300006D887E888F88988CEE24FF248701AA241C
:10131000BB24650140E050E060E070E0E0E0F0E018
:10132000C10181709070892BE9F0E60CF71C081D53
:10133000191D9A01AB012A0D3B1D4C1D5D1D80E05E
:1013400090E0A0E0B0E0E614F7040805190520F4E9
:1013500081E090E0A0E0B0E0BA01A901480F591F78
:101360006A1F7B1FAA0CBB1CCC1CDD1C97FE08C08F
:1013700081E090E0A0E0B0E0A82AB92ACA2ADB2ADE
:101380003196E032F10549F0660C771C881C991CF7
:101390005694479437942794C3CFFA85EA892B89CA
:1013A0003C898B859C85280F391F2E5F3F4F17C0C6
:1013B000CA0181709070892B61F016950795F7949A
:1013C000E79480E090E0A0E0B0E8E82AF92A0A2B50
:1013D0001B2B76956795579547952F5F3F4F77FD68
:1013E000E7CF0CC0440F551F661F771F17FD4160E4
:1013F000EE0CFF1C001F111F21503040403090E0C8
:10140000590790E0690790E4790760F32B8F3C8FD0
:10141000DB01CA018F779070A070B07080349105A5
:10142000A105B10561F447FD0AC0E114F10401050D
:10143000110529F0405C5F4F6F4F7F4F40781A8E47
:10144000FE1711F081E08A8F4D8F5E8F6F8F78A32A
:1014500083E0898FCE0149960E94E80CA096E2E1D4
:101460000C94EB0EA8E1B0E0E8E3FAE00C94D70EA0
:1014700069837A838B839C832D833E834F83588734
:10148000B9E0EB2EF12CEC0EFD1ECE010196B7015A
:101490000E94BD0D8E010F5E1F4FCE010596B80153
:1014A0000E94BD0D2985223008F47EC03989323072
:1014B00010F4B8017CC08A859A8989278A872430EC
:1014C00011F0223031F4231709F06EC066E173E0A9
:1014D0006EC0343039F41D861E861F86188A1C861D
:1014E0001B8604C0323021F484E08987B7015FC0D5
:1014F0002B853C858B899C89281B390B3C872B8746
:10150000ED84FE840F851889AD88BE88CF88D88C7D
:10151000EA14FB040C051D0540F4EE0CFF1C001F33
:10152000111F215030403C872B8720E030E040E005
:1015300050E080E090E0A0E0B0E460E070E0EA1409
:10154000FB040C051D0540F0282B392B4A2B5B2B87
:10155000EA18FB080C091D09B695A795979587957C
:10156000EE0CFF1C001F111F6F5F7F4F6F31710565
:1015700031F7DA01C9018F779070A070B0708034B4
:101580009105A105B10561F427FD0AC0E114F1043C
:101590000105110529F0205C3F4F4F4F5F4F207828
:1015A0002D873E874F87588BBE01675F7F4FCB01EA
:1015B0000E94E80C6896EAE00C94F30EA8E1B0E013
:1015C000E4EEFAE00C94DB0E69837A838B839C83D0
:1015D0002D833E834F83588789E0E82EF12CEC0E53
:1015E000FD1ECE010196B7010E94BD0D8E010F5E5A
:1015F0001F4FCE010596B8010E94BD0D898582302E
:1016000040F08989823028F0C701B8010E94350E68
:1016100001C08FEF6896E6E00C94F70EA8E1B0E009
:10162000E4E1FBE00C94DB0E69837A838B839C837B
:101630002D833E834F83588789E0E82EF12CEC0EF2
:10164000FD1ECE010196B7010E94BD0D8E010F5EF9
:101650001F4FCE010596B8010E94BD0D89858230CD
:1016600040F08989823028F0C701B8010E94350E08
:1016700001C08FEF6896E6E00C94F70EA8E1B0E0A9
:10168000E4E4FBE00C94DB0E69837A838B839C8318
:101690002D833E834F83588789E0E82EF12CEC0E92
:1016A000FD1ECE010196B7010E94BD0D8E010F5E99
:1016B0001F4FCE010596B8010E94BD0D898582306D
:1016C00040F08989823028F0C701B8010E94350EA8
:1016D00001C081E06896E6E00C94F70EA8E0B0E067
:1016E000E4E7FBE00C94D80E9B01AC0183E0898316
:1016F000DA01C9018827B7FD83959927AA27BB2757
:10170000B82E211531054105510519F482E0898370
:101710003AC08823A9F0203080E0380780E04807ED
:1017200080E8580729F460E070E080E09FEC30C06A
:10173000EE24FF248701E21AF30A040B150B02C002
:1017400079018A018EE1C82ED12CDC82CB82ED8218
:10175000FE820F831887C801B7010E94990C019778
:101760001816190684F4082E04C0EE0CFF1C001F86
:10177000111F0A94D2F7ED82FE820F831887C81AD0
:10178000D90ADC82CB82BA82CE0101960E94E80C93
:101790002896E9E00C94F40EACE0B0E0E2EDFBE05A
:1017A0000C94DF0E69837A838B839C83CE01019630
:1017B000BE016B5F7F4F0E94BD0D8D81823061F154
:1017C000823050F1843021F48E81882351F12EC073
:1017D0002F81388537FD20C06E812F3131051CF0F7
:1017E0006623F9F023C08EE190E0821B930B2985DC
:1017F0003A854B855C8504C0569547953795279566
:101800008A95D2F76623B1F0509540953095219591
:101810003F4F4F4F5F4F0EC020E030E040E050E0C0
:1018200009C02FEF3FEF4FEF5FE704C020E030E04B
:1018300040E050E8B901CA012C96E2E00C94FB0E9E
:10184000A8E0B0E0E6E2FCE00C94D70E7B018C014E
:10185000611571058105910519F482E0898360C0E5
:1018600083E089838EE1C82ED12CDC82CB82ED828D
:10187000FE820F831887C801B7010E94990CFC01F2
:101880003197F7FF3BC0222733272E1B3F0B570111
:101890006801022E04C0D694C794B794A7940A9402
:1018A000D2F740E050E060E070E081E090E0A0E03E
:1018B000B0E004C0880F991FAA1FBB1F2A95D2F75A
:1018C0000197A109B1098E219F21A023B12300977F
:1018D000A105B10521F041E050E060E070E04A2947
:1018E0005B296C297D294D835E836F8378878EE128
:1018F00090E08E1B9F0B9C838B8312C0309781F0EE
:101900000E2E04C0EE0CFF1C001F111F0A94D2F70C
:10191000ED82FE820F831887CE1ADF0ADC82CB822B
:101920001A82CE0101960E94E80C2896EAE00C94F7
:10193000F30EEF92FF920F931F937B018C0180E0D7
:10194000E81680E0F80681E0080780E0180788F4D0
:101950008FEFE816F1040105110531F028F088E059
:1019600090E0A0E0B0E017C080E090E0A0E0B0E040
:1019700012C080E0E81680E0F80680E0080781E009
:10198000180728F088E190E0A0E0B0E004C080E112
:1019900090E0A0E0B0E020E230E040E050E0281B22
:1019A000390B4A0B5B0B04C016950795F794E79427
:1019B0008A95D2F7F701E25EFC4F8081281B31093E
:1019C00041095109C9011F910F91FF90EF900895AE
:1019D000DF92EF92FF920F931F93FC01E480F5805A
:1019E00006811781D1808081823048F480E090E0C8
:1019F000A0E1B0E0E82AF92A0A2B1B2BA5C084300D
:101A000009F49FC0823021F4EE24FF24870105C031
:101A1000E114F1040105110519F4E0E0F0E096C0CD
:101A2000628173819FEF623879070CF05BC022E816
:101A30003FEF261B370B2A3131052CF020E030E038
:101A400040E050E02AC0B801A701022E04C07695FC
:101A50006795579547950A94D2F781E090E0A0E00A
:101A6000B0E004C0880F991FAA1FBB1F2A95D2F7A8
:101A70000197A109B1098E219F21A023B1230097CD
:101A8000A105B10521F081E090E0A0E0B0E09A016D
:101A9000AB01282B392B4A2B5B2BDA01C9018F773D
:101AA0009070A070B07080349105A105B10539F433
:101AB00027FF09C0205C3F4F4F4F5F4F04C0215CA0
:101AC0003F4F4F4F5F4FE0E0F0E02030A0E03A079B
:101AD000A0E04A07A0E45A0710F0E1E0F0E0790145
:101AE0008A0127C06038710564F5FB01E158FF4F9A
:101AF000D801C7018F779070A070B07080349105C5
:101B0000A105B10539F4E7FE0DC080E490E0A0E046
:101B1000B0E004C08FE390E0A0E0B0E0E80EF91E72
:101B20000A1F1B1F17FF05C016950795F794E7942A
:101B3000319687E016950795F794E7948A95D1F743
:101B400005C0EE24FF248701EFEFF0E06E2F6795CC
:101B500066276795902F9F77D794DD24D7948E2F93
:101B60008695492F462B582F5D29B701CA011F9131
:101B70000F91FF90EF90DF900895FC01DB01408111
:101B800051812281622F6F7770E0221F2227221F4E
:101B90009381892F880F822B282F30E0991F992756
:101BA000991F11969C93119721153105A9F541159F
:101BB00051056105710511F482E037C082E89FEF9D
:101BC00013969C938E9312979A01AB0167E0220FB4
:101BD000331F441F551F6A95D1F783E08C930DC0C6
:101BE000220F331F441F551F12968D919C911397FE
:101BF000019713969C938E931297203080E03807BC
:101C000080E0480780E4580758F314962D933D93DD
:101C10004D935C93179708952F3F310579F4411543
:101C200051056105710519F484E08C93089564FFF2
:101C300003C081E08C9312C01C9210C02F5730401B
:101C400013963C932E93129783E08C9387E0440F76
:101C5000551F661F771F8A95D1F7706414964D93B0
:101C60005D936D937C93179708951F93DC01FB019F
:101C70009C91923008F447C08081823008F443C0C0
:101C8000943051F411961C91843099F58181682F1C
:101C900070E0611B71093FC0843021F0923031F453
:101CA0008230B9F18181882389F12DC011961C9170
:101CB00011978230F1F081811817D9F412962D9185
:101CC0003C911397828193818217930794F0281790
:101CD0003907BCF014968D919D910D90BC91A02D6B
:101CE0002481358146815781281739074A075B07C8
:101CF00018F4112341F00AC082179307A407B5070F
:101D000040F4112319F061E070E005C06FEF7FEF40
:101D100002C060E070E0CB011F910895629FD00186
:101D2000739FF001829FE00DF11D649FE00DF11D96
:101D3000929FF00D839FF00D749FF00D659FF00D45
:101D40009927729FB00DE11DF91F639FB00DE11D32
:101D5000F91FBD01CF0111240895A1E21A2EAA1B7B
:101D6000BB1BFD010DC0AA1FBB1FEE1FFF1FA2174B
:101D7000B307E407F50720F0A21BB30BE40BF50B48
:101D8000661F771F881F991F1A9469F760957095D1
:101D9000809590959B01AC01BD01CF0108952F92D4
:101DA0003F924F925F926F927F928F929F92AF92EB
:101DB000BF92CF92DF92EF92FF920F931F93CF9338
:101DC000DF93CDB7DEB7CA1BDB0B0FB6F894DEBFCF
:101DD0000FBECDBF09942A88398848885F846E84F5
:101DE0007D848C849B84AA84B984C884DF80EE803F
:101DF000FD800C811B81AA81B981CE0FD11D0FB648
:101E0000F894DEBF0FBECDBFED010895F894FFCF6B
:101E10004F63637570616E63793A200054656D702D
:101E2000657261747572653A2000204600446973DA
:101E300074616E636520313A200020636D0044694F
:101E40007374616E636520323A2000000000000068
:101E500000002F00000007000700147F147F1424E7
:101E60002A7F2A122313086462364955225000053E
:101E7000030000001C2241000041221C0014083E07
:101E8000081408083E08080000A0600008080808B8
:101E900008006060000020100804023E5149453EE1
:101EA00000427F400042615149462141454B311873
:101EB00014127F1027454545393C4A494930017184
:101EC0000905033649494936064949291E0036366F
:101ED00000000056360000081422410014141414A7
:101EE0001400412214080201510906324959513E99
:101EF0007C1211127C7F494949363E414141227F83
:101F00004141221C7F494949417F090909013E415C
:101F100049497A7F0808087F00417F4100204041FD
:101F20003F017F081422417F404040407F020C0265
:101F30007F7F0408107F3E4141413E7F0909090629
:101F40003E4151215E7F09192946464949493101DF
:101F5000017F01013F4040403F1F2040201F3F4084
:101F600038403F631408146307087008076151493B
:101F70004543007F41410055AA55AA550041417F84
:101F800000040201020440404040400003050000FC
:101F900020545454787F48444438384444442038CA
:101FA0004444487F3854545418087E09010218A448
:101FB000A4A47C7F0804047800447D400040808411
:101FC0007D007F1028440000417F40007C041804FD
:101FD000787C080404783844444438FC24242418C9
:101FE00018242418FC7C0804040848545454200481
:101FF0003F4440203C4040207C1C2040201C3C4072
:1020000030403C44281028441CA0A0A07C446454C8
:102010004C4400107C82000000FF000000827C1015
:102020000000060909060000000000000000000191
:102030000202030303030404040404040404050566
:10204000050505050505050505050505050506063E
:102050000606060606060606060606060606060620
:10206000060606060606060606060606060607070E
:1020700007070707070707070707070707070707F0
:1020800007070707070707070707070707070707E0
:1020900007070707070707070707070707070707D0
:1020A00007070707070707070707070707070808BE
:1020B00008080808080808080808080808080808A0
:1020C0000808080808080808080808080808080890
:1020D0000808080808080808080808080808080880
:1020E0000808080808080808080808080808080870
:1020F0000808080808080808080808080808080860
:10210000080808080808080808080808080808084F
:10211000080808080808080808080808080808083F
:0E212000080808080808080808080808080841
:00000001FF
